{
  "contractName": "adharverification",
  "abi": [
    {
      "constant": true,
      "inputs": [
        {
          "name": "",
          "type": "bytes32"
        }
      ],
      "name": "shipments",
      "outputs": [
        {
          "name": "qrCode",
          "type": "string"
        },
        {
          "name": "destination",
          "type": "string"
        },
        {
          "name": "aadhaar",
          "type": "string"
        },
        {
          "name": "otp",
          "type": "string"
        },
        {
          "name": "isDelivered",
          "type": "bool"
        },
        {
          "name": "aadhaarVerified",
          "type": "bool"
        },
        {
          "name": "otpVerified",
          "type": "bool"
        }
      ],
      "payable": false,
      "stateMutability": "view",
      "type": "function"
    },
    {
      "anonymous": false,
      "inputs": [
        {
          "indexed": false,
          "name": "qrCodeHash",
          "type": "bytes32"
        }
      ],
      "name": "AadhaarVerified",
      "type": "event"
    },
    {
      "constant": false,
      "inputs": [
        {
          "name": "_qrCode",
          "type": "string"
        },
        {
          "name": "_enteredAadhaar",
          "type": "string"
        }
      ],
      "name": "verifyAadhaar",
      "outputs": [],
      "payable": false,
      "stateMutability": "nonpayable",
      "type": "function"
    }
  ],
  "bytecode": "0x608060405234801561001057600080fd5b506109d8806100206000396000f3fe608060405260043610610046576000357c0100000000000000000000000000000000000000000000000000000000900480630e6fe1941461004b578063d87b4041146101aa575b600080fd5b34801561005757600080fd5b506101a86004803603604081101561006e57600080fd5b810190808035906020019064010000000081111561008b57600080fd5b82018360208201111561009d57600080fd5b803590602001918460018302840111640100000000831117156100bf57600080fd5b91908080601f016020809104026020016040519081016040528093929190818152602001838380828437600081840152601f19601f8201169050808301925050505050505091929192908035906020019064010000000081111561012257600080fd5b82018360208201111561013457600080fd5b8035906020019184600183028401116401000000008311171561015657600080fd5b91908080601f016020809104026020016040519081016040528093929190818152602001838380828437600081840152601f19601f8201169050808301925050505050505091929192905050506103c3565b005b3480156101b657600080fd5b506101e3600480360360208110156101cd57600080fd5b81019080803590602001909291905050506106e3565b604051808060200180602001806020018060200188151515158152602001871515151581526020018615151515815260200185810385528c818151815260200191508051906020019080838360005b8381101561024d578082015181840152602081019050610232565b50505050905090810190601f16801561027a5780820380516001836020036101000a031916815260200191505b5085810384528b818151815260200191508051906020019080838360005b838110156102b3578082015181840152602081019050610298565b50505050905090810190601f1680156102e05780820380516001836020036101000a031916815260200191505b5085810383528a818151815260200191508051906020019080838360005b838110156103195780820151818401526020810190506102fe565b50505050905090810190601f1680156103465780820380516001836020036101000a031916815260200191505b50858103825289818151815260200191508051906020019080838360005b8381101561037f578082015181840152602081019050610364565b50505050905090810190601f1680156103ac5780820380516001836020036101000a031916815260200191505b509b50505050505050505050505060405180910390f35b6000826040516020018082805190602001908083835b6020831015156103fe57805182526020820191506020810190506020830392506103d9565b6001836020036101000a0380198251168184511680821785525050505050509050019150506040516020818303038152906040528051906020012090506000806000838152602001908152602001600020600001805460018160011615610100020316600290049050111515610502576040517f08c379a00000000000000000000000000000000000000000000000000000000081526004018080602001828103825260288152602001807f536869706d656e7420646f6573206e6f7420657869737420666f72207468697381526020017f20515220636f646500000000000000000000000000000000000000000000000081525060400191505060405180910390fd5b816040516020018082805190602001908083835b60208310151561053b5780518252602082019150602081019050602083039250610516565b6001836020036101000a0380198251168184511680821785525050505050509050019150506040516020818303038152906040528051906020012060008083815260200190815260200160002060020160405160200180828054600181600116156101000203166002900480156105e95780601f106105c75761010080835404028352918201916105e9565b820191906000526020600020905b8154815290600101906020018083116105d5575b505091505060405160208183030381529060405280519060200120141515610679576040517f08c379a00000000000000000000000000000000000000000000000000000000081526004018080602001828103825260148152602001807f4161646861617220697320696e636f727265637400000000000000000000000081525060200191505060405180910390fd5b600160008083815260200190815260200160002060040160016101000a81548160ff0219169083151502179055507ffe01f272b5c4c75a3f94f6594370118c9931670914d782db79a21feac2586725816040518082815260200191505060405180910390a1505050565b6000602052806000526040600020600091509050806000018054600181600116156101000203166002900480601f01602080910402602001604051908101604052809291908181526020018280546001816001161561010002031660029004801561078f5780601f106107645761010080835404028352916020019161078f565b820191906000526020600020905b81548152906001019060200180831161077257829003601f168201915b505050505090806001018054600181600116156101000203166002900480601f01602080910402602001604051908101604052809291908181526020018280546001816001161561010002031660029004801561082d5780601f106108025761010080835404028352916020019161082d565b820191906000526020600020905b81548152906001019060200180831161081057829003601f168201915b505050505090806002018054600181600116156101000203166002900480601f0160208091040260200160405190810160405280929190818152602001828054600181600116156101000203166002900480156108cb5780601f106108a0576101008083540402835291602001916108cb565b820191906000526020600020905b8154815290600101906020018083116108ae57829003601f168201915b505050505090806003018054600181600116156101000203166002900480601f0160208091040260200160405190810160405280929190818152602001828054600181600116156101000203166002900480156109695780601f1061093e57610100808354040283529160200191610969565b820191906000526020600020905b81548152906001019060200180831161094c57829003601f168201915b5050505050908060040160009054906101000a900460ff16908060040160019054906101000a900460ff16908060040160029054906101000a900460ff1690508756fea165627a7a72305820e98570f699d3427b5efb472bd47f181d7154847d3cab4df9a207cb00effd8fcc0029",
  "source": "// SPDX-License-Identifier: MIT\r\npragma solidity >=0.4.22 <0.9.0;\r\n\r\ncontract adharverification {\r\n    struct Shipment {\r\n        string qrCode;\r\n        string destination;\r\n        string aadhaar;\r\n        string otp;\r\n        bool isDelivered;\r\n        bool aadhaarVerified;\r\n        bool otpVerified;\r\n    }\r\n\r\n    mapping(bytes32 => Shipment) public shipments;\r\n\r\n    event AadhaarVerified(bytes32 qrCodeHash);\r\n\r\n    function verifyAadhaar(string memory _qrCode, string memory _enteredAadhaar) public {\r\n        bytes32 qrCodeHash = keccak256(abi.encodePacked(_qrCode));\r\n        require(bytes(shipments[qrCodeHash].qrCode).length > 0, \"Shipment does not exist for this QR code\");\r\n        require(keccak256(abi.encodePacked(shipments[qrCodeHash].aadhaar)) == keccak256(abi.encodePacked(_enteredAadhaar)), \"Aadhaar is incorrect\");\r\n\r\n        shipments[qrCodeHash].aadhaarVerified = true;\r\n\r\n        emit AadhaarVerified(qrCodeHash);\r\n    }\r\n}\r\n",
  "sourcePath": "D:\\dist\\backend\\contracts\\adharverification.sol",
  "compiler": {
    "name": "solc",
    "version": "0.5.1+commit.c8a2cb62.Emscripten.clang"
  },
  "schemaVersion": "3.4.16",
  "updatedAt": "2024-09-13T09:56:52.404Z",
  "devdoc": {
    "methods": {}
  },
  "userdoc": {
    "methods": {}
  }
}