{
  "contractName": "MedicineSupply",
  "abi": [
    {
      "constant": true,
      "inputs": [
        {
          "name": "",
          "type": "bytes32"
        }
      ],
      "name": "shipments",
      "outputs": [
        {
          "name": "qrCode",
          "type": "string"
        },
        {
          "name": "destination",
          "type": "string"
        },
        {
          "name": "aadhaar",
          "type": "string"
        },
        {
          "name": "otp",
          "type": "string"
        },
        {
          "name": "isDelivered",
          "type": "bool"
        },
        {
          "name": "aadhaarVerified",
          "type": "bool"
        },
        {
          "name": "otpVerified",
          "type": "bool"
        }
      ],
      "payable": false,
      "stateMutability": "view",
      "type": "function"
    },
    {
      "anonymous": false,
      "inputs": [
        {
          "indexed": false,
          "name": "qrCodeHash",
          "type": "bytes32"
        },
        {
          "indexed": false,
          "name": "destination",
          "type": "string"
        },
        {
          "indexed": false,
          "name": "aadhaar",
          "type": "string"
        }
      ],
      "name": "ShipmentCreated",
      "type": "event"
    },
    {
      "anonymous": false,
      "inputs": [
        {
          "indexed": false,
          "name": "qrCodeHash",
          "type": "bytes32"
        }
      ],
      "name": "OTPSet",
      "type": "event"
    },
    {
      "anonymous": false,
      "inputs": [
        {
          "indexed": false,
          "name": "qrCodeHash",
          "type": "bytes32"
        },
        {
          "indexed": false,
          "name": "isDelivered",
          "type": "bool"
        },
        {
          "indexed": false,
          "name": "aadhaarVerified",
          "type": "bool"
        },
        {
          "indexed": false,
          "name": "otpVerified",
          "type": "bool"
        }
      ],
      "name": "ShipmentDelivered",
      "type": "event"
    },
    {
      "constant": false,
      "inputs": [
        {
          "name": "_qrCode",
          "type": "string"
        },
        {
          "name": "_destination",
          "type": "string"
        },
        {
          "name": "_aadhaar",
          "type": "string"
        }
      ],
      "name": "createShipment",
      "outputs": [],
      "payable": false,
      "stateMutability": "nonpayable",
      "type": "function"
    },
    {
      "constant": false,
      "inputs": [
        {
          "name": "_qrCode",
          "type": "string"
        },
        {
          "name": "_enteredAadhaar",
          "type": "string"
        }
      ],
      "name": "verifyAadhaar",
      "outputs": [],
      "payable": false,
      "stateMutability": "nonpayable",
      "type": "function"
    },
    {
      "constant": false,
      "inputs": [
        {
          "name": "_qrCode",
          "type": "string"
        },
        {
          "name": "_otp",
          "type": "string"
        }
      ],
      "name": "setOTP",
      "outputs": [],
      "payable": false,
      "stateMutability": "nonpayable",
      "type": "function"
    },
    {
      "constant": false,
      "inputs": [
        {
          "name": "_qrCode",
          "type": "string"
        },
        {
          "name": "_enteredOtp",
          "type": "string"
        }
      ],
      "name": "verifyOTP",
      "outputs": [],
      "payable": false,
      "stateMutability": "nonpayable",
      "type": "function"
    },
    {
      "constant": true,
      "inputs": [
        {
          "name": "_qrCode",
          "type": "string"
        }
      ],
      "name": "getShipmentStatus",
      "outputs": [
        {
          "name": "isDelivered",
          "type": "bool"
        },
        {
          "name": "aadhaarVerified",
          "type": "bool"
        },
        {
          "name": "otpVerified",
          "type": "bool"
        }
      ],
      "payable": false,
      "stateMutability": "view",
      "type": "function"
    }
  ],
  "bytecode": "0x608060405234801561001057600080fd5b50611e4b806100206000396000f3fe608060405260043610610072576000357c010000000000000000000000000000000000000000000000000000000090048063016849c9146100775780630e6fe194146101d6578063155ea1161461033557806335beffd41461042b578063992964251461058a578063d87b404114610780575b600080fd5b34801561008357600080fd5b506101d46004803603604081101561009a57600080fd5b81019080803590602001906401000000008111156100b757600080fd5b8201836020820111156100c957600080fd5b803590602001918460018302840111640100000000831117156100eb57600080fd5b91908080601f016020809104026020016040519081016040528093929190818152602001838380828437600081840152601f19601f8201169050808301925050505050505091929192908035906020019064010000000081111561014e57600080fd5b82018360208201111561016057600080fd5b8035906020019184600183028401116401000000008311171561018257600080fd5b91908080601f016020809104026020016040519081016040528093929190818152602001838380828437600081840152601f19601f820116905080830192505050505050509192919290505050610999565b005b3480156101e257600080fd5b50610333600480360360408110156101f957600080fd5b810190808035906020019064010000000081111561021657600080fd5b82018360208201111561022857600080fd5b8035906020019184600183028401116401000000008311171561024a57600080fd5b91908080601f016020809104026020016040519081016040528093929190818152602001838380828437600081840152601f19601f820116905080830192505050505050509192919290803590602001906401000000008111156102ad57600080fd5b8201836020820111156102bf57600080fd5b803590602001918460018302840111640100000000831117156102e157600080fd5b91908080601f016020809104026020016040519081016040528093929190818152602001838380828437600081840152601f19601f820116905080830192505050505050509192919290505050610d71565b005b34801561034157600080fd5b506103fb6004803603602081101561035857600080fd5b810190808035906020019064010000000081111561037557600080fd5b82018360208201111561038757600080fd5b803590602001918460018302840111640100000000831117156103a957600080fd5b91908080601f016020809104026020016040519081016040528093929190818152602001838380828437600081840152601f19601f82011690508083019250505050505050919291929050505061105a565b60405180841515151581526020018315151515815260200182151515158152602001935050505060405180910390f35b34801561043757600080fd5b506105886004803603604081101561044e57600080fd5b810190808035906020019064010000000081111561046b57600080fd5b82018360208201111561047d57600080fd5b8035906020019184600183028401116401000000008311171561049f57600080fd5b91908080601f016020809104026020016040519081016040528093929190818152602001838380828437600081840152601f19601f8201169050808301925050505050505091929192908035906020019064010000000081111561050257600080fd5b82018360208201111561051457600080fd5b8035906020019184600183028401116401000000008311171561053657600080fd5b91908080601f016020809104026020016040519081016040528093929190818152602001838380828437600081840152601f19601f8201169050808301925050505050505091929192905050506114bc565b005b34801561059657600080fd5b5061077e600480360360608110156105ad57600080fd5b81019080803590602001906401000000008111156105ca57600080fd5b8201836020820111156105dc57600080fd5b803590602001918460018302840111640100000000831117156105fe57600080fd5b91908080601f016020809104026020016040519081016040528093929190818152602001838380828437600081840152601f19601f8201169050808301925050505050505091929192908035906020019064010000000081111561066157600080fd5b82018360208201111561067357600080fd5b8035906020019184600183028401116401000000008311171561069557600080fd5b91908080601f016020809104026020016040519081016040528093929190818152602001838380828437600081840152601f19601f820116905080830192505050505050509192919290803590602001906401000000008111156106f857600080fd5b82018360208201111561070a57600080fd5b8035906020019184600183028401116401000000008311171561072c57600080fd5b91908080601f016020809104026020016040519081016040528093929190818152602001838380828437600081840152601f19601f820116905080830192505050505050509192919290505050611661565b005b34801561078c57600080fd5b506107b9600480360360208110156107a357600080fd5b81019080803590602001909291905050506119ed565b604051808060200180602001806020018060200188151515158152602001871515151581526020018615151515815260200185810385528c818151815260200191508051906020019080838360005b83811015610823578082015181840152602081019050610808565b50505050905090810190601f1680156108505780820380516001836020036101000a031916815260200191505b5085810384528b818151815260200191508051906020019080838360005b8381101561088957808201518184015260208101905061086e565b50505050905090810190601f1680156108b65780820380516001836020036101000a031916815260200191505b5085810383528a818151815260200191508051906020019080838360005b838110156108ef5780820151818401526020810190506108d4565b50505050905090810190601f16801561091c5780820380516001836020036101000a031916815260200191505b50858103825289818151815260200191508051906020019080838360005b8381101561095557808201518184015260208101905061093a565b50505050905090810190601f1680156109825780820380516001836020036101000a031916815260200191505b509b50505050505050505050505060405180910390f35b6000826040516020018082805190602001908083835b6020831015156109d457805182526020820191506020810190506020830392506109af565b6001836020036101000a0380198251168184511680821785525050505050509050019150506040516020818303038152906040528051906020012090506000806000838152602001908152602001600020600001805460018160011615610100020316600290049050111515610ad8576040517f08c379a00000000000000000000000000000000000000000000000000000000081526004018080602001828103825260288152602001807f536869706d656e7420646f6573206e6f7420657869737420666f72207468697381526020017f20515220636f646500000000000000000000000000000000000000000000000081525060400191505060405180910390fd5b816040516020018082805190602001908083835b602083101515610b115780518252602082019150602081019050602083039250610aec565b6001836020036101000a038019825116818451168082178552505050505050905001915050604051602081830303815290604052805190602001206000808381526020019081526020016000206003016040516020018082805460018160011615610100020316600290048015610bbf5780601f10610b9d576101008083540402835291820191610bbf565b820191906000526020600020905b815481529060010190602001808311610bab575b505091505060405160208183030381529060405280519060200120141515610c4f576040517f08c379a00000000000000000000000000000000000000000000000000000000081526004018080602001828103825260108152602001807f4f545020697320696e636f72726563740000000000000000000000000000000081525060200191505060405180910390fd5b600160008083815260200190815260200160002060040160006101000a81548160ff021916908315150217905550600160008083815260200190815260200160002060040160026101000a81548160ff0219169083151502179055507f3a970912cd68e5033895131a7f64aef6cca9b397361067c5eb4e4f1d55187f5c8160008084815260200190815260200160002060040160009054906101000a900460ff1660008085815260200190815260200160002060040160019054906101000a900460ff1660008086815260200190815260200160002060040160029054906101000a900460ff166040518085815260200184151515158152602001831515151581526020018215151515815260200194505050505060405180910390a1505050565b6000826040516020018082805190602001908083835b602083101515610dac5780518252602082019150602081019050602083039250610d87565b6001836020036101000a0380198251168184511680821785525050505050509050019150506040516020818303038152906040528051906020012090506000806000838152602001908152602001600020600001805460018160011615610100020316600290049050111515610eb0576040517f08c379a00000000000000000000000000000000000000000000000000000000081526004018080602001828103825260288152602001807f536869706d656e7420646f6573206e6f7420657869737420666f72207468697381526020017f20515220636f646500000000000000000000000000000000000000000000000081525060400191505060405180910390fd5b816040516020018082805190602001908083835b602083101515610ee95780518252602082019150602081019050602083039250610ec4565b6001836020036101000a038019825116818451168082178552505050505050905001915050604051602081830303815290604052805190602001206000808381526020019081526020016000206002016040516020018082805460018160011615610100020316600290048015610f975780601f10610f75576101008083540402835291820191610f97565b820191906000526020600020905b815481529060010190602001808311610f83575b505091505060405160208183030381529060405280519060200120141515611027576040517f08c379a00000000000000000000000000000000000000000000000000000000081526004018080602001828103825260148152602001807f4161646861617220697320696e636f727265637400000000000000000000000081525060200191505060405180910390fd5b600160008083815260200190815260200160002060040160016101000a81548160ff021916908315150217905550505050565b600080600080846040516020018082805190602001908083835b6020831015156110995780518252602082019150602081019050602083039250611074565b6001836020036101000a038019825116818451168082178552505050505050905001915050604051602081830303815290604052805190602001209050600080600083815260200190815260200160002060000180546001816001161561010002031660029004905011151561119d576040517f08c379a00000000000000000000000000000000000000000000000000000000081526004018080602001828103825260288152602001807f536869706d656e7420646f6573206e6f7420657869737420666f72207468697381526020017f20515220636f646500000000000000000000000000000000000000000000000081525060400191505060405180910390fd5b6111a5611cb6565b60008083815260200190815260200160002060e06040519081016040529081600082018054600181600116156101000203166002900480601f01602080910402602001604051908101604052809291908181526020018280546001816001161561010002031660029004801561125c5780601f106112315761010080835404028352916020019161125c565b820191906000526020600020905b81548152906001019060200180831161123f57829003601f168201915b50505050508152602001600182018054600181600116156101000203166002900480601f0160208091040260200160405190810160405280929190818152602001828054600181600116156101000203166002900480156112fe5780601f106112d3576101008083540402835291602001916112fe565b820191906000526020600020905b8154815290600101906020018083116112e157829003601f168201915b50505050508152602001600282018054600181600116156101000203166002900480601f0160208091040260200160405190810160405280929190818152602001828054600181600116156101000203166002900480156113a05780601f10611375576101008083540402835291602001916113a0565b820191906000526020600020905b81548152906001019060200180831161138357829003601f168201915b50505050508152602001600382018054600181600116156101000203166002900480601f0160208091040260200160405190810160405280929190818152602001828054600181600116156101000203166002900480156114425780601f1061141757610100808354040283529160200191611442565b820191906000526020600020905b81548152906001019060200180831161142557829003601f168201915b505050505081526020016004820160009054906101000a900460ff161515151581526020016004820160019054906101000a900460ff161515151581526020016004820160029054906101000a900460ff161515151581525050905080608001518160a001518260c0015194509450945050509193909250565b6000826040516020018082805190602001908083835b6020831015156114f757805182526020820191506020810190506020830392506114d2565b6001836020036101000a03801982511681845116808217855250505050505090500191505060405160208183030381529060405280519060200120905060008060008381526020019081526020016000206000018054600181600116156101000203166002900490501115156115fb576040517f08c379a00000000000000000000000000000000000000000000000000000000081526004018080602001828103825260288152602001807f536869706d656e7420646f6573206e6f7420657869737420666f72207468697381526020017f20515220636f646500000000000000000000000000000000000000000000000081525060400191505060405180910390fd5b816000808381526020019081526020016000206003019080519060200190611624929190611cfa565b507ff7383ade5b54d3b93689f8657c6f42fa04eb462b5b006d88d6138f9ab8e03f7e816040518082815260200191505060405180910390a1505050565b6000836040516020018082805190602001908083835b60208310151561169c5780518252602082019150602081019050602083039250611677565b6001836020036101000a03801982511681845116808217855250505050505090500191505060405160208183030381529060405280519060200120905060008060008381526020019081526020016000206000018054600181600116156101000203166002900490501415156117a0576040517f08c379a00000000000000000000000000000000000000000000000000000000081526004018080602001828103825260288152602001807f536869706d656e7420616c72656164792065786973747320666f72207468697381526020017f20515220636f646500000000000000000000000000000000000000000000000081525060400191505060405180910390fd5b60e0604051908101604052808581526020018481526020018381526020016020604051908101604052806000815250815260200160001515815260200160001515815260200160001515815250600080838152602001908152602001600020600082015181600001908051906020019061181b929190611d7a565b506020820151816001019080519060200190611838929190611d7a565b506040820151816002019080519060200190611855929190611d7a565b506060820151816003019080519060200190611872929190611d7a565b5060808201518160040160006101000a81548160ff02191690831515021790555060a08201518160040160016101000a81548160ff02191690831515021790555060c08201518160040160026101000a81548160ff0219169083151502179055509050507fafc380c9aa06d561eb2ecc5c51fc1ade33de615fe0ac827e28e8effd3e133f35818484604051808481526020018060200180602001838103835285818151815260200191508051906020019080838360005b83811015611944578082015181840152602081019050611929565b50505050905090810190601f1680156119715780820380516001836020036101000a031916815260200191505b50838103825284818151815260200191508051906020019080838360005b838110156119aa57808201518184015260208101905061198f565b50505050905090810190601f1680156119d75780820380516001836020036101000a031916815260200191505b509550505050505060405180910390a150505050565b6000602052806000526040600020600091509050806000018054600181600116156101000203166002900480601f016020809104026020016040519081016040528092919081815260200182805460018160011615610100020316600290048015611a995780601f10611a6e57610100808354040283529160200191611a99565b820191906000526020600020905b815481529060010190602001808311611a7c57829003601f168201915b505050505090806001018054600181600116156101000203166002900480601f016020809104026020016040519081016040528092919081815260200182805460018160011615610100020316600290048015611b375780601f10611b0c57610100808354040283529160200191611b37565b820191906000526020600020905b815481529060010190602001808311611b1a57829003601f168201915b505050505090806002018054600181600116156101000203166002900480601f016020809104026020016040519081016040528092919081815260200182805460018160011615610100020316600290048015611bd55780601f10611baa57610100808354040283529160200191611bd5565b820191906000526020600020905b815481529060010190602001808311611bb857829003601f168201915b505050505090806003018054600181600116156101000203166002900480601f016020809104026020016040519081016040528092919081815260200182805460018160011615610100020316600290048015611c735780601f10611c4857610100808354040283529160200191611c73565b820191906000526020600020905b815481529060010190602001808311611c5657829003601f168201915b5050505050908060040160009054906101000a900460ff16908060040160019054906101000a900460ff16908060040160029054906101000a900460ff16905087565b60e060405190810160405280606081526020016060815260200160608152602001606081526020016000151581526020016000151581526020016000151581525090565b828054600181600116156101000203166002900490600052602060002090601f016020900481019282601f10611d3b57805160ff1916838001178555611d69565b82800160010185558215611d69579182015b82811115611d68578251825591602001919060010190611d4d565b5b509050611d769190611dfa565b5090565b828054600181600116156101000203166002900490600052602060002090601f016020900481019282601f10611dbb57805160ff1916838001178555611de9565b82800160010185558215611de9579182015b82811115611de8578251825591602001919060010190611dcd565b5b509050611df69190611dfa565b5090565b611e1c91905b80821115611e18576000816000905550600101611e00565b5090565b9056fea165627a7a7230582042d9b0814582cf10b59d06fbdbc94ec44419889bd8ab6260f2d3f118d16a4f210029",
  "source": "// SPDX-License-Identifier: MIT\npragma solidity >=0.4.22 <0.9.0;\n\ncontract MedicineSupply {\n    struct Shipment {\n        string qrCode;\n        string destination;\n        string aadhaar;\n        string otp;\n        bool isDelivered;\n        bool aadhaarVerified;\n        bool otpVerified;\n    }\n\n    mapping(bytes32 => Shipment) public shipments;\n\n    event ShipmentCreated(bytes32 qrCodeHash, string destination, string aadhaar);\n    event OTPSet(bytes32 qrCodeHash);\n    event ShipmentDelivered(bytes32 qrCodeHash, bool isDelivered, bool aadhaarVerified, bool otpVerified);\n\n    function createShipment(string memory _qrCode, string memory _destination, string memory _aadhaar) public {\n        bytes32 qrCodeHash = keccak256(abi.encodePacked(_qrCode));\n        require(bytes(shipments[qrCodeHash].qrCode).length == 0, \"Shipment already exists for this QR code\");\n\n        shipments[qrCodeHash] = Shipment({\n            qrCode: _qrCode,\n            destination: _destination,\n            aadhaar: _aadhaar,\n            otp: \"\",\n            isDelivered: false,\n            aadhaarVerified: false,\n            otpVerified: false\n        });\n\n        emit ShipmentCreated(qrCodeHash, _destination, _aadhaar);\n    }\n\n    function verifyAadhaar(string memory _qrCode, string memory _enteredAadhaar) public {\n        bytes32 qrCodeHash = keccak256(abi.encodePacked(_qrCode));\n        require(bytes(shipments[qrCodeHash].qrCode).length > 0, \"Shipment does not exist for this QR code\");\n        require(keccak256(abi.encodePacked(shipments[qrCodeHash].aadhaar)) == keccak256(abi.encodePacked(_enteredAadhaar)), \"Aadhaar is incorrect\");\n\n        shipments[qrCodeHash].aadhaarVerified = true;\n    }\n\n    function setOTP(string memory _qrCode, string memory _otp) public {\n        bytes32 qrCodeHash = keccak256(abi.encodePacked(_qrCode));\n        require(bytes(shipments[qrCodeHash].qrCode).length > 0, \"Shipment does not exist for this QR code\");\n\n        shipments[qrCodeHash].otp = _otp;\n        emit OTPSet(qrCodeHash);\n    }\n\n    function verifyOTP(string memory _qrCode, string memory _enteredOtp) public {\n        bytes32 qrCodeHash = keccak256(abi.encodePacked(_qrCode));\n        require(bytes(shipments[qrCodeHash].qrCode).length > 0, \"Shipment does not exist for this QR code\");\n        require(keccak256(abi.encodePacked(shipments[qrCodeHash].otp)) == keccak256(abi.encodePacked(_enteredOtp)), \"OTP is incorrect\");\n\n        shipments[qrCodeHash].isDelivered = true;\n        shipments[qrCodeHash].otpVerified = true;\n\n        emit ShipmentDelivered(qrCodeHash, shipments[qrCodeHash].isDelivered, shipments[qrCodeHash].aadhaarVerified, shipments[qrCodeHash].otpVerified);\n    }\n\n    function getShipmentStatus(string memory _qrCode) public view returns (bool isDelivered, bool aadhaarVerified, bool otpVerified) {\n        bytes32 qrCodeHash = keccak256(abi.encodePacked(_qrCode));\n        require(bytes(shipments[qrCodeHash].qrCode).length > 0, \"Shipment does not exist for this QR code\");\n\n        Shipment memory shipment = shipments[qrCodeHash];\n        return (shipment.isDelivered, shipment.aadhaarVerified, shipment.otpVerified);\n    }\n}",
  "sourcePath": "D:\\dist\\backend\\contracts\\supplychain.sol",
  "compiler": {
    "name": "solc",
    "version": "0.5.1+commit.c8a2cb62.Emscripten.clang"
  },
  "schemaVersion": "3.4.16",
  "updatedAt": "2024-09-13T09:56:55.907Z",
  "networkType": "ethereum",
  "devdoc": {
    "methods": {}
  },
  "userdoc": {
    "methods": {}
  }
}