{
  "contractName": "otpmanagement",
  "abi": [
    {
      "constant": true,
      "inputs": [
        {
          "name": "",
          "type": "bytes32"
        }
      ],
      "name": "shipments",
      "outputs": [
        {
          "name": "qrCode",
          "type": "string"
        },
        {
          "name": "destination",
          "type": "string"
        },
        {
          "name": "aadhaar",
          "type": "string"
        },
        {
          "name": "otp",
          "type": "string"
        },
        {
          "name": "isDelivered",
          "type": "bool"
        },
        {
          "name": "aadhaarVerified",
          "type": "bool"
        },
        {
          "name": "otpVerified",
          "type": "bool"
        }
      ],
      "payable": false,
      "stateMutability": "view",
      "type": "function"
    },
    {
      "anonymous": false,
      "inputs": [
        {
          "indexed": false,
          "name": "qrCodeHash",
          "type": "bytes32"
        }
      ],
      "name": "OTPSet",
      "type": "event"
    },
    {
      "anonymous": false,
      "inputs": [
        {
          "indexed": false,
          "name": "qrCodeHash",
          "type": "bytes32"
        },
        {
          "indexed": false,
          "name": "isDelivered",
          "type": "bool"
        },
        {
          "indexed": false,
          "name": "aadhaarVerified",
          "type": "bool"
        },
        {
          "indexed": false,
          "name": "otpVerified",
          "type": "bool"
        }
      ],
      "name": "ShipmentDelivered",
      "type": "event"
    },
    {
      "constant": false,
      "inputs": [
        {
          "name": "_qrCode",
          "type": "string"
        },
        {
          "name": "_otp",
          "type": "string"
        }
      ],
      "name": "setOTP",
      "outputs": [],
      "payable": false,
      "stateMutability": "nonpayable",
      "type": "function"
    },
    {
      "constant": false,
      "inputs": [
        {
          "name": "_qrCode",
          "type": "string"
        },
        {
          "name": "_enteredOtp",
          "type": "string"
        }
      ],
      "name": "verifyOTP",
      "outputs": [],
      "payable": false,
      "stateMutability": "nonpayable",
      "type": "function"
    }
  ],
  "bytecode": "0x608060405234801561001057600080fd5b50610e44806100206000396000f3fe608060405260043610610051576000357c010000000000000000000000000000000000000000000000000000000090048063016849c91461005657806335beffd4146101b5578063d87b404114610314575b600080fd5b34801561006257600080fd5b506101b36004803603604081101561007957600080fd5b810190808035906020019064010000000081111561009657600080fd5b8201836020820111156100a857600080fd5b803590602001918460018302840111640100000000831117156100ca57600080fd5b91908080601f016020809104026020016040519081016040528093929190818152602001838380828437600081840152601f19601f8201169050808301925050505050505091929192908035906020019064010000000081111561012d57600080fd5b82018360208201111561013f57600080fd5b8035906020019184600183028401116401000000008311171561016157600080fd5b91908080601f016020809104026020016040519081016040528093929190818152602001838380828437600081840152601f19601f82011690508083019250505050505050919291929050505061052d565b005b3480156101c157600080fd5b50610312600480360360408110156101d857600080fd5b81019080803590602001906401000000008111156101f557600080fd5b82018360208201111561020757600080fd5b8035906020019184600183028401116401000000008311171561022957600080fd5b91908080601f016020809104026020016040519081016040528093929190818152602001838380828437600081840152601f19601f8201169050808301925050505050505091929192908035906020019064010000000081111561028c57600080fd5b82018360208201111561029e57600080fd5b803590602001918460018302840111640100000000831117156102c057600080fd5b91908080601f016020809104026020016040519081016040528093929190818152602001838380828437600081840152601f19601f820116905080830192505050505050509192919290505050610905565b005b34801561032057600080fd5b5061034d6004803603602081101561033757600080fd5b8101908080359060200190929190505050610aaa565b604051808060200180602001806020018060200188151515158152602001871515151581526020018615151515815260200185810385528c818151815260200191508051906020019080838360005b838110156103b757808201518184015260208101905061039c565b50505050905090810190601f1680156103e45780820380516001836020036101000a031916815260200191505b5085810384528b818151815260200191508051906020019080838360005b8381101561041d578082015181840152602081019050610402565b50505050905090810190601f16801561044a5780820380516001836020036101000a031916815260200191505b5085810383528a818151815260200191508051906020019080838360005b83811015610483578082015181840152602081019050610468565b50505050905090810190601f1680156104b05780820380516001836020036101000a031916815260200191505b50858103825289818151815260200191508051906020019080838360005b838110156104e95780820151818401526020810190506104ce565b50505050905090810190601f1680156105165780820380516001836020036101000a031916815260200191505b509b50505050505050505050505060405180910390f35b6000826040516020018082805190602001908083835b6020831015156105685780518252602082019150602081019050602083039250610543565b6001836020036101000a038019825116818451168082178552505050505050905001915050604051602081830303815290604052805190602001209050600080600083815260200190815260200160002060000180546001816001161561010002031660029004905011151561066c576040517f08c379a00000000000000000000000000000000000000000000000000000000081526004018080602001828103825260288152602001807f536869706d656e7420646f6573206e6f7420657869737420666f72207468697381526020017f20515220636f646500000000000000000000000000000000000000000000000081525060400191505060405180910390fd5b816040516020018082805190602001908083835b6020831015156106a55780518252602082019150602081019050602083039250610680565b6001836020036101000a0380198251168184511680821785525050505050509050019150506040516020818303038152906040528051906020012060008083815260200190815260200160002060030160405160200180828054600181600116156101000203166002900480156107535780601f10610731576101008083540402835291820191610753565b820191906000526020600020905b81548152906001019060200180831161073f575b5050915050604051602081830303815290604052805190602001201415156107e3576040517f08c379a00000000000000000000000000000000000000000000000000000000081526004018080602001828103825260108152602001807f4f545020697320696e636f72726563740000000000000000000000000000000081525060200191505060405180910390fd5b600160008083815260200190815260200160002060040160006101000a81548160ff021916908315150217905550600160008083815260200190815260200160002060040160026101000a81548160ff0219169083151502179055507f3a970912cd68e5033895131a7f64aef6cca9b397361067c5eb4e4f1d55187f5c8160008084815260200190815260200160002060040160009054906101000a900460ff1660008085815260200190815260200160002060040160019054906101000a900460ff1660008086815260200190815260200160002060040160029054906101000a900460ff166040518085815260200184151515158152602001831515151581526020018215151515815260200194505050505060405180910390a1505050565b6000826040516020018082805190602001908083835b602083101515610940578051825260208201915060208101905060208303925061091b565b6001836020036101000a0380198251168184511680821785525050505050509050019150506040516020818303038152906040528051906020012090506000806000838152602001908152602001600020600001805460018160011615610100020316600290049050111515610a44576040517f08c379a00000000000000000000000000000000000000000000000000000000081526004018080602001828103825260288152602001807f536869706d656e7420646f6573206e6f7420657869737420666f72207468697381526020017f20515220636f646500000000000000000000000000000000000000000000000081525060400191505060405180910390fd5b816000808381526020019081526020016000206003019080519060200190610a6d929190610d73565b507ff7383ade5b54d3b93689f8657c6f42fa04eb462b5b006d88d6138f9ab8e03f7e816040518082815260200191505060405180910390a1505050565b6000602052806000526040600020600091509050806000018054600181600116156101000203166002900480601f016020809104026020016040519081016040528092919081815260200182805460018160011615610100020316600290048015610b565780601f10610b2b57610100808354040283529160200191610b56565b820191906000526020600020905b815481529060010190602001808311610b3957829003601f168201915b505050505090806001018054600181600116156101000203166002900480601f016020809104026020016040519081016040528092919081815260200182805460018160011615610100020316600290048015610bf45780601f10610bc957610100808354040283529160200191610bf4565b820191906000526020600020905b815481529060010190602001808311610bd757829003601f168201915b505050505090806002018054600181600116156101000203166002900480601f016020809104026020016040519081016040528092919081815260200182805460018160011615610100020316600290048015610c925780601f10610c6757610100808354040283529160200191610c92565b820191906000526020600020905b815481529060010190602001808311610c7557829003601f168201915b505050505090806003018054600181600116156101000203166002900480601f016020809104026020016040519081016040528092919081815260200182805460018160011615610100020316600290048015610d305780601f10610d0557610100808354040283529160200191610d30565b820191906000526020600020905b815481529060010190602001808311610d1357829003601f168201915b5050505050908060040160009054906101000a900460ff16908060040160019054906101000a900460ff16908060040160029054906101000a900460ff16905087565b828054600181600116156101000203166002900490600052602060002090601f016020900481019282601f10610db457805160ff1916838001178555610de2565b82800160010185558215610de2579182015b82811115610de1578251825591602001919060010190610dc6565b5b509050610def9190610df3565b5090565b610e1591905b80821115610e11576000816000905550600101610df9565b5090565b9056fea165627a7a72305820f4fc7a21c1603bd18fb26e3d0189016401cd139e01f9561c438e4ef607a05a290029",
  "source": "// SPDX-License-Identifier: MIT\r\npragma solidity >=0.4.22 <0.9.0;\r\n\r\ncontract otpmanagement {\r\n    struct Shipment {\r\n        string qrCode;\r\n        string destination;\r\n        string aadhaar;\r\n        string otp;\r\n        bool isDelivered;\r\n        bool aadhaarVerified;\r\n        bool otpVerified;\r\n    }\r\n\r\n    mapping(bytes32 => Shipment) public shipments;\r\n\r\n    event OTPSet(bytes32 qrCodeHash);\r\n    event ShipmentDelivered(bytes32 qrCodeHash, bool isDelivered, bool aadhaarVerified, bool otpVerified);\r\n\r\n    function setOTP(string memory _qrCode, string memory _otp) public {\r\n        bytes32 qrCodeHash = keccak256(abi.encodePacked(_qrCode));\r\n        require(bytes(shipments[qrCodeHash].qrCode).length > 0, \"Shipment does not exist for this QR code\");\r\n\r\n        shipments[qrCodeHash].otp = _otp;\r\n        emit OTPSet(qrCodeHash);\r\n    }\r\n\r\n    function verifyOTP(string memory _qrCode, string memory _enteredOtp) public {\r\n        bytes32 qrCodeHash = keccak256(abi.encodePacked(_qrCode));\r\n        require(bytes(shipments[qrCodeHash].qrCode).length > 0, \"Shipment does not exist for this QR code\");\r\n        require(keccak256(abi.encodePacked(shipments[qrCodeHash].otp)) == keccak256(abi.encodePacked(_enteredOtp)), \"OTP is incorrect\");\r\n\r\n        shipments[qrCodeHash].isDelivered = true;\r\n        shipments[qrCodeHash].otpVerified = true;\r\n\r\n        emit ShipmentDelivered(qrCodeHash, shipments[qrCodeHash].isDelivered, shipments[qrCodeHash].aadhaarVerified, shipments[qrCodeHash].otpVerified);\r\n    }\r\n}\r\n",
  "sourcePath": "D:\\dist\\backend\\contracts\\otpmanagement.sol",
  "compiler": {
    "name": "solc",
    "version": "0.5.1+commit.c8a2cb62.Emscripten.clang"
  },
  "schemaVersion": "3.4.16",
  "updatedAt": "2024-09-14T03:02:34.066Z",
  "devdoc": {
    "methods": {}
  },
  "userdoc": {
    "methods": {}
  }
}